:100000000C943E000C9448000C9448000C9448005A
:100010000C9448000C9448000C9448000C94480040
:100020000C9448000C9448000C9448000C94480030
:100030000C9448000C9448000C9448000C94480020
:100040000C9448000C9448000C9448000C94480010
:100050000C9448000C9448000C9448000C94480000
:100060000C9448000C9448000C9448000C944800F0
:100070000C9448000C9448000C94480011241FBEB6
:10008000CFEFCDBFDFE7DEBF0E944A000C947500C2
:100090000C94000008ED13E025E000933400109369
:1000A0006100209366000027112722270093000497
:1000B00000934044009360041124139400E41091D1
:1000C0000004012B009300041092EC0507E000935C
:1000D000010C1092020C00E10093110C04E000935B
:0E00E000140C1092000C0000FECFF894FFCF1D
:00000001FF
