:100000000C943E000C9448000C9448000C9448005A
:100010000C9448000C9448000C9448000C94480040
:100020000C9448000C9448000C9448000C94480030
:100030000C9448000C9448000C9448000C94480020
:100040000C9448000C9448000C9448000C94480010
:100050000C9448000C9448000C9448000C94480000
:100060000C9448000C9448000C9448000C944800F0
:100070000C9448000C9448000C94480011241FBEB6
:10008000CFEFCDBFDFE7DEBF0E944A000C946400D3
:100090000C94000008ED13E025E000933400109369
:1000A00061002093660000271127222701E00093BA
:1000B0000004009108040270009344040091480475
:0C00C000017000930404F5CFF894FFCF0A
:00000001FF
